{
    "contractName": "NFTPotionDutchAuction",
    "abi": [
        {
            "anonymous": false,
            "inputs": [
                {
                    "indexed": true,
                    "internalType": "address",
                    "name": "previousOwner",
                    "type": "address"
                },
                {
                    "indexed": true,
                    "internalType": "address",
                    "name": "newOwner",
                    "type": "address"
                }
            ],
            "name": "OwnershipTransferred",
            "type": "event"
        },
        {
            "anonymous": false,
            "inputs": [
                {
                    "indexed": true,
                    "internalType": "uint256",
                    "name": "id",
                    "type": "uint256"
                },
                {
                    "indexed": true,
                    "internalType": "address",
                    "name": "buyer",
                    "type": "address"
                },
                {
                    "indexed": false,
                    "internalType": "uint64",
                    "name": "numTokens",
                    "type": "uint64"
                }
            ],
            "name": "Purchase",
            "type": "event"
        },
        {
            "inputs": [
                {
                    "internalType": "address",
                    "name": "buyer",
                    "type": "address"
                },
                {
                    "internalType": "uint256",
                    "name": "itemsId",
                    "type": "uint256"
                },
                {
                    "internalType": "uint128",
                    "name": "amount",
                    "type": "uint128"
                }
            ],
            "name": "addCredit",
            "outputs": [],
            "stateMutability": "nonpayable",
            "type": "function"
        },
        {
            "inputs": [
                {
                    "internalType": "address[]",
                    "name": "buyers",
                    "type": "address[]"
                },
                {
                    "internalType": "uint256[]",
                    "name": "itemsIds",
                    "type": "uint256[]"
                },
                {
                    "internalType": "uint256[]",
                    "name": "amounts",
                    "type": "uint256[]"
                }
            ],
            "name": "addCredit",
            "outputs": [],
            "stateMutability": "nonpayable",
            "type": "function"
        },
        {
            "inputs": [
                {
                    "internalType": "address",
                    "name": "",
                    "type": "address"
                }
            ],
            "name": "canAccess",
            "outputs": [
                {
                    "internalType": "bool",
                    "name": "",
                    "type": "bool"
                }
            ],
            "stateMutability": "view",
            "type": "function"
        },
        {
            "inputs": [
                {
                    "internalType": "uint256",
                    "name": "id",
                    "type": "uint256"
                },
                {
                    "internalType": "uint256",
                    "name": "newPrice",
                    "type": "uint256"
                }
            ],
            "name": "changePrice",
            "outputs": [],
            "stateMutability": "nonpayable",
            "type": "function"
        },
        {
            "inputs": [],
            "name": "currentId",
            "outputs": [
                {
                    "internalType": "uint256",
                    "name": "",
                    "type": "uint256"
                }
            ],
            "stateMutability": "view",
            "type": "function"
        },
        {
            "inputs": [
                {
                    "internalType": "address",
                    "name": "buyer",
                    "type": "address"
                },
                {
                    "internalType": "uint256",
                    "name": "itemsId",
                    "type": "uint256"
                }
            ],
            "name": "getCredit",
            "outputs": [
                {
                    "internalType": "uint256",
                    "name": "",
                    "type": "uint256"
                }
            ],
            "stateMutability": "view",
            "type": "function"
        },
        {
            "inputs": [
                {
                    "internalType": "uint256",
                    "name": "id",
                    "type": "uint256"
                }
            ],
            "name": "getRemainingItems",
            "outputs": [
                {
                    "internalType": "uint256",
                    "name": "",
                    "type": "uint256"
                }
            ],
            "stateMutability": "nonpayable",
            "type": "function"
        },
        {
            "inputs": [],
            "name": "isAuctionActive",
            "outputs": [
                {
                    "internalType": "bool",
                    "name": "",
                    "type": "bool"
                }
            ],
            "stateMutability": "view",
            "type": "function"
        },
        {
            "inputs": [],
            "name": "owner",
            "outputs": [
                {
                    "internalType": "address",
                    "name": "",
                    "type": "address"
                }
            ],
            "stateMutability": "view",
            "type": "function"
        },
        {
            "inputs": [
                {
                    "internalType": "uint256",
                    "name": "id",
                    "type": "uint256"
                },
                {
                    "internalType": "uint256",
                    "name": "amount",
                    "type": "uint256"
                },
                {
                    "internalType": "uint256",
                    "name": "limitPrice",
                    "type": "uint256"
                },
                {
                    "internalType": "string",
                    "name": "publicKey",
                    "type": "string"
                }
            ],
            "name": "purchase",
            "outputs": [],
            "stateMutability": "payable",
            "type": "function"
        },
        {
            "inputs": [],
            "name": "purchasePrice",
            "outputs": [
                {
                    "internalType": "uint256",
                    "name": "",
                    "type": "uint256"
                }
            ],
            "stateMutability": "view",
            "type": "function"
        },
        {
            "inputs": [],
            "name": "renounceOwnership",
            "outputs": [],
            "stateMutability": "nonpayable",
            "type": "function"
        },
        {
            "inputs": [
                {
                    "internalType": "address",
                    "name": "caller",
                    "type": "address"
                },
                {
                    "internalType": "bool",
                    "name": "allow",
                    "type": "bool"
                }
            ],
            "name": "setAccess",
            "outputs": [],
            "stateMutability": "nonpayable",
            "type": "function"
        },
        {
            "inputs": [
                {
                    "internalType": "address[]",
                    "name": "callers",
                    "type": "address[]"
                },
                {
                    "internalType": "bool",
                    "name": "allow",
                    "type": "bool"
                }
            ],
            "name": "setAccessAll",
            "outputs": [],
            "stateMutability": "nonpayable",
            "type": "function"
        },
        {
            "inputs": [
                {
                    "internalType": "uint256",
                    "name": "id",
                    "type": "uint256"
                },
                {
                    "internalType": "uint256",
                    "name": "_purchasePrice",
                    "type": "uint256"
                }
            ],
            "name": "startAuction",
            "outputs": [],
            "stateMutability": "nonpayable",
            "type": "function"
        },
        {
            "inputs": [],
            "name": "stopAuction",
            "outputs": [],
            "stateMutability": "nonpayable",
            "type": "function"
        },
        {
            "inputs": [
                {
                    "internalType": "address payable",
                    "name": "recipient",
                    "type": "address"
                }
            ],
            "name": "transferFunds",
            "outputs": [],
            "stateMutability": "nonpayable",
            "type": "function"
        },
        {
            "inputs": [
                {
                    "internalType": "address",
                    "name": "newOwner",
                    "type": "address"
                }
            ],
            "name": "transferOwnership",
            "outputs": [],
            "stateMutability": "nonpayable",
            "type": "function"
        },
        {
            "inputs": [],
            "name": "unrequestedFundsReceived",
            "outputs": [
                {
                    "internalType": "uint256",
                    "name": "",
                    "type": "uint256"
                }
            ],
            "stateMutability": "view",
            "type": "function"
        },
        {
            "stateMutability": "payable",
            "type": "receive"
        }
    ],
    "bytecode": "608060405234801561001057600080fd5b5061001a3361001f565b61006f565b600080546001600160a01b038381166001600160a01b0319831681178455604051919092169283917f8be0079c531659141344cd1fd0a4f28419497f9722a3daafe3b4186f6b6457e09190a35050565b6110818061007e6000396000f3fe6080604052600436106101185760003560e01c80638da5cb5b116100a0578063defd6c5f11610064578063defd6c5f14610336578063e00dd1611461034c578063e39ff19f14610362578063f2fde38b14610382578063f9988a12146103a257600080fd5b80638da5cb5b146102945780639f7674ef146102bc578063b3de019c146102dc578063b84614a5146102fc578063d1b4b9a31461031c57600080fd5b80634fee13fc116100e75780634fee13fc146101db57806368e65cbd146101fb578063715018a61461021b57806379207697146102305780638ae61ceb1461027357600080fd5b806318a9d2221461013b578063269b9a08146101805780632f26ef8a14610197578063414129d8146101bb57600080fd5b3661013657346001600082825461012f9190610cce565b9091555050005b600080fd5b34801561014757600080fd5b5061016b610156366004610cfb565b60026020526000908152604090205460ff1681565b60405190151581526020015b60405180910390f35b34801561018c57600080fd5b506101956103b5565b005b3480156101a357600080fd5b506101ad60015481565b604051908152602001610177565b3480156101c757600080fd5b506101956101d6366004610d1f565b6103f4565b3480156101e757600080fd5b506101956101f6366004610d6d565b610464565b34801561020757600080fd5b50610195610216366004610df0565b610529565b34801561022757600080fd5b506101956105ca565b34801561023c57600080fd5b506101ad61024b366004610e44565b6001600160a01b03919091166000908152600360209081526040808320938352929052205490565b34801561027f57600080fd5b506101ad61028e366004610e70565b50600090565b3480156102a057600080fd5b506000546040516001600160a01b039091168152602001610177565b3480156102c857600080fd5b506101956102d7366004610e89565b610600565b3480156102e857600080fd5b506101956102f7366004610d6d565b6107b7565b34801561030857600080fd5b50610195610317366004610f23565b6108d5565b34801561032857600080fd5b5060065461016b9060ff1681565b34801561034257600080fd5b506101ad60055481565b34801561035857600080fd5b506101ad60045481565b34801561036e57600080fd5b5061019561037d366004610cfb565b61092a565b34801561038e57600080fd5b5061019561039d366004610cfb565b610966565b6101956103b0366004610f58565b610a01565b6000546001600160a01b031633146103e85760405162461bcd60e51b81526004016103df90610fe5565b60405180910390fd5b6006805460ff19169055565b6000546001600160a01b0316331461041e5760405162461bcd60e51b81526004016103df90610fe5565b6001600160a01b0383166000908152600360209081526040808320858452909152812080546001600160801b038416929061045a908490610cce565b9091555050505050565b6000546001600160a01b0316331461048e5760405162461bcd60e51b81526004016103df90610fe5565b60065460ff16156104e15760405162461bcd60e51b815260206004820152601960248201527f41756374696f6e20697320616c7265616479206163746976650000000000000060448201526064016103df565b60405162461bcd60e51b815260206004820152601a60248201527f4974656d732061726520616c726561647920736f6c64206f757400000000000060448201526064016103df565b6000546001600160a01b031633146105535760405162461bcd60e51b81526004016103df90610fe5565b60005b828110156105c45781600260008686858181106105755761057561101a565b905060200201602081019061058a9190610cfb565b6001600160a01b031681526020810191909152604001600020805460ff1916911515919091179055806105bc81611030565b915050610556565b50505050565b6000546001600160a01b031633146105f45760405162461bcd60e51b81526004016103df90610fe5565b6105fe6000610b4a565b565b6000546001600160a01b0316331461062a5760405162461bcd60e51b81526004016103df90610fe5565b846106835760405162461bcd60e51b8152602060048201526024808201527f547279696e6720746f2077686974656c697374207769746820656d70747920616044820152637272617960e01b60648201526084016103df565b8483148061069057508481145b6106f15760405162461bcd60e51b815260206004820152602c60248201527f4d69736d6174636820696e2061727261792073697a657320666f72206469726560448201526b18dd081dda1a5d195b1a5cdd60a21b60648201526084016103df565b60005b818110156107ae5782828281811061070e5761070e61101a565b905060200201356003600089898581811061072b5761072b61101a565b90506020020160208101906107409190610cfb565b6001600160a01b03166001600160a01b0316815260200190815260200160002060008787858181106107745761077461101a565b90506020020135815260200190815260200160002060008282546107989190610cce565b909155506107a7905081611030565b90506106f4565b50505050505050565b6000546001600160a01b031633146107e15760405162461bcd60e51b81526004016103df90610fe5565b600654829060ff1661082d5760405162461bcd60e51b815260206004820152601560248201527441756374696f6e206973206e6f742061637469766560581b60448201526064016103df565b600454811461087e5760405162461bcd60e51b815260206004820152601a60248201527f4163746976652061756374696f6e204944206d69736d6174636800000000000060448201526064016103df565b600082116108ce5760405162461bcd60e51b815260206004820181905260248201527f4e6577207072696365206d7573742062652067726561746572207468616e203060448201526064016103df565b5060055550565b6000546001600160a01b031633146108ff5760405162461bcd60e51b81526004016103df90610fe5565b6001600160a01b03919091166000908152600260205260409020805460ff1916911515919091179055565b6000546001600160a01b031633146109545760405162461bcd60e51b81526004016103df90610fe5565b61095e8147610b9a565b506000600155565b6000546001600160a01b031633146109905760405162461bcd60e51b81526004016103df90610fe5565b6001600160a01b0381166109f55760405162461bcd60e51b815260206004820152602660248201527f4f776e61626c653a206e6577206f776e657220697320746865207a65726f206160448201526564647265737360d01b60648201526084016103df565b6109fe81610b4a565b50565b600654859060ff16610a4d5760405162461bcd60e51b815260206004820152601560248201527441756374696f6e206973206e6f742061637469766560581b60448201526064016103df565b6004548114610a9e5760405162461bcd60e51b815260206004820152601a60248201527f4163746976652061756374696f6e204944206d69736d6174636800000000000060448201526064016103df565b3360009081526002602052604090205460ff16610b0c5760405162461bcd60e51b815260206004820152602660248201527f4163636573734c6973743a2043616c6c657220646f65736e277420686176652060448201526561636365737360d01b60648201526084016103df565b60405162461bcd60e51b8152602060048201526013602482015272105d58dd1a5bdb881a5cc81cdbdb19081bdd5d606a1b60448201526064016103df565b600080546001600160a01b038381166001600160a01b0319831681178455604051919092169283917f8be0079c531659141344cd1fd0a4f28419497f9722a3daafe3b4186f6b6457e09190a35050565b80471015610bea5760405162461bcd60e51b815260206004820152601d60248201527f416464726573733a20696e73756666696369656e742062616c616e636500000060448201526064016103df565b6000826001600160a01b03168260405160006040518083038185875af1925050503d8060008114610c37576040519150601f19603f3d011682016040523d82523d6000602084013e610c3c565b606091505b5050905080610cb35760405162461bcd60e51b815260206004820152603a60248201527f416464726573733a20756e61626c6520746f2073656e642076616c75652c207260448201527f6563697069656e74206d6179206861766520726576657274656400000000000060648201526084016103df565b505050565b634e487b7160e01b600052601160045260246000fd5b60008219821115610ce157610ce1610cb8565b500190565b6001600160a01b03811681146109fe57600080fd5b600060208284031215610d0d57600080fd5b8135610d1881610ce6565b9392505050565b600080600060608486031215610d3457600080fd5b8335610d3f81610ce6565b92506020840135915060408401356001600160801b0381168114610d6257600080fd5b809150509250925092565b60008060408385031215610d8057600080fd5b50508035926020909101359150565b60008083601f840112610da157600080fd5b50813567ffffffffffffffff811115610db957600080fd5b6020830191508360208260051b8501011115610dd457600080fd5b9250929050565b80358015158114610deb57600080fd5b919050565b600080600060408486031215610e0557600080fd5b833567ffffffffffffffff811115610e1c57600080fd5b610e2886828701610d8f565b9094509250610e3b905060208501610ddb565b90509250925092565b60008060408385031215610e5757600080fd5b8235610e6281610ce6565b946020939093013593505050565b600060208284031215610e8257600080fd5b5035919050565b60008060008060008060608789031215610ea257600080fd5b863567ffffffffffffffff80821115610eba57600080fd5b610ec68a838b01610d8f565b90985096506020890135915080821115610edf57600080fd5b610eeb8a838b01610d8f565b90965094506040890135915080821115610f0457600080fd5b50610f1189828a01610d8f565b979a9699509497509295939492505050565b60008060408385031215610f3657600080fd5b8235610f4181610ce6565b9150610f4f60208401610ddb565b90509250929050565b600080600080600060808688031215610f7057600080fd5b853594506020860135935060408601359250606086013567ffffffffffffffff80821115610f9d57600080fd5b818801915088601f830112610fb157600080fd5b813581811115610fc057600080fd5b896020828501011115610fd257600080fd5b9699959850939650602001949392505050565b6020808252818101527f4f776e61626c653a2063616c6c6572206973206e6f7420746865206f776e6572604082015260600190565b634e487b7160e01b600052603260045260246000fd5b600060001982141561104457611044610cb8565b506001019056fea264697066735822122031f02dfba474b23194c6400fd181f2e50cf42f72b063eac82c20cac89ed1cc5364736f6c63430008090033",
    "sourcePath": "/home/rcano/Development/thesolidchain/potion.fi/nft-minting-frontend/contracts/NFTPotionDutchAuction.sol",
    "compiler": {
        "name": "solc",
        "version": "0.8.9+commit.e5eed63a"
    },
    "functionHashes": {
        "addCredit(address,uint256,uint128)": "414129d8",
        "addCredit(address[],uint256[],uint256[])": "9f7674ef",
        "canAccess(address)": "18a9d222",
        "changePrice(uint256,uint256)": "b3de019c",
        "currentId()": "e00dd161",
        "getCredit(address,uint256)": "79207697",
        "getRemainingItems(uint256)": "8ae61ceb",
        "isAuctionActive()": "d1b4b9a3",
        "owner()": "8da5cb5b",
        "purchase(uint256,uint256,uint256,string)": "f9988a12",
        "purchasePrice()": "defd6c5f",
        "renounceOwnership()": "715018a6",
        "setAccess(address,bool)": "b84614a5",
        "setAccessAll(address[],bool)": "68e65cbd",
        "startAuction(uint256,uint256)": "4fee13fc",
        "stopAuction()": "269b9a08",
        "transferFunds(address)": "e39ff19f",
        "transferOwnership(address)": "f2fde38b",
        "unrequestedFundsReceived()": "2f26ef8a"
    },
    "gasEstimates": {
        "creation": {
            "codeDepositCost": "845000",
            "executionCost": "26724",
            "totalCost": "871724"
        },
        "external": {
            "addCredit(address,uint256,uint128)": "27099",
            "addCredit(address[],uint256[],uint256[])": "infinite",
            "canAccess(address)": "2538",
            "changePrice(uint256,uint256)": "28833",
            "currentId()": "2339",
            "getCredit(address,uint256)": "2719",
            "getRemainingItems(uint256)": "385",
            "isAuctionActive()": "2410",
            "owner()": "2324",
            "purchase(uint256,uint256,uint256,string)": "7122",
            "purchasePrice()": "2317",
            "renounceOwnership()": "28181",
            "setAccess(address,bool)": "26947",
            "setAccessAll(address[],bool)": "infinite",
            "startAuction(uint256,uint256)": "4641",
            "stopAuction()": "26548",
            "transferFunds(address)": "infinite",
            "transferOwnership(address)": "infinite",
            "unrequestedFundsReceived()": "2363"
        },
        "internal": {
            "_purchaseItems(uint256,uint256,string calldata)": "infinite"
        }
    }
}